{
  "contractName": "Canvas",
  "abi": [
    {
      "constant": true,
      "inputs": [],
      "name": "canvasString",
      "outputs": [
        {
          "name": "",
          "type": "string"
        }
      ],
      "payable": false,
      "stateMutability": "view",
      "type": "function"
    },
    {
      "constant": false,
      "inputs": [
        {
          "name": "data",
          "type": "string"
        }
      ],
      "name": "drawString",
      "outputs": [
        {
          "name": "success",
          "type": "bool"
        }
      ],
      "payable": false,
      "stateMutability": "nonpayable",
      "type": "function"
    },
    {
      "constant": true,
      "inputs": [],
      "name": "tokenInstance",
      "outputs": [
        {
          "name": "",
          "type": "address"
        }
      ],
      "payable": false,
      "stateMutability": "view",
      "type": "function"
    },
    {
      "constant": false,
      "inputs": [],
      "name": "getCanvasString",
      "outputs": [
        {
          "name": "canv",
          "type": "string"
        }
      ],
      "payable": false,
      "stateMutability": "nonpayable",
      "type": "function"
    },
    {
      "inputs": [
        {
          "name": "addressOfToken",
          "type": "address"
        }
      ],
      "payable": false,
      "stateMutability": "nonpayable",
      "type": "constructor"
    },
    {
      "anonymous": false,
      "inputs": [
        {
          "indexed": false,
          "name": "canvas",
          "type": "string"
        }
      ],
      "name": "Draw",
      "type": "event"
    }
  ],
  "bytecode": "0x6060604052341561000f57600080fd5b6040516020806106b18339810160405280805190602001909190505080600160006101000a81548173ffffffffffffffffffffffffffffffffffffffff021916908373ffffffffffffffffffffffffffffffffffffffff160217905550506106358061007c6000396000f300606060405260043610610062576000357c0100000000000000000000000000000000000000000000000000000000900463ffffffff1680634c944ecc146100675780635932b143146100f5578063658030b31461016a5780637323e635146101bf575b600080fd5b341561007257600080fd5b61007a61024d565b6040518080602001828103825283818151815260200191508051906020019080838360005b838110156100ba57808201518184015260208101905061009f565b50505050905090810190601f1680156100e75780820380516001836020036101000a031916815260200191505b509250505060405180910390f35b341561010057600080fd5b610150600480803590602001908201803590602001908080601f016020809104026020016040519081016040528093929190818152602001838380828437820191505050505050919050506102eb565b604051808215151515815260200191505060405180910390f35b341561017557600080fd5b61017d610482565b604051808273ffffffffffffffffffffffffffffffffffffffff1673ffffffffffffffffffffffffffffffffffffffff16815260200191505060405180910390f35b34156101ca57600080fd5b6101d26104a8565b6040518080602001828103825283818151815260200191508051906020019080838360005b838110156102125780820151818401526020810190506101f7565b50505050905090810190601f16801561023f5780820380516001836020036101000a031916815260200191505b509250505060405180910390f35b60008054600181600116156101000203166002900480601f0160208091040260200160405190810160405280929190818152602001828054600181600116156101000203166002900480156102e35780601f106102b8576101008083540402835291602001916102e3565b820191906000526020600020905b8154815290600101906020018083116102c657829003601f168201915b505050505081565b6000600160009054906101000a900473ffffffffffffffffffffffffffffffffffffffff1673ffffffffffffffffffffffffffffffffffffffff166379cc67903360016040518363ffffffff167c0100000000000000000000000000000000000000000000000000000000028152600401808373ffffffffffffffffffffffffffffffffffffffff1673ffffffffffffffffffffffffffffffffffffffff16815260200182815260200192505050600060405180830381600087803b15156103b257600080fd5b6102c65a03f115156103c357600080fd5b50505081600090805190602001906103dc929190610550565b507f4de411966911eab10c37d2d2df9d6c4f4f4c8af1a7a80477ffeb448e06466eb3826040518080602001828103825283818151815260200191508051906020019080838360005b8381101561043f578082015181840152602081019050610424565b50505050905090810190601f16801561046c5780820380516001836020036101000a031916815260200191505b509250505060405180910390a160019050919050565b600160009054906101000a900473ffffffffffffffffffffffffffffffffffffffff1681565b6104b06105d0565b60008054600181600116156101000203166002900480601f0160208091040260200160405190810160405280929190818152602001828054600181600116156101000203166002900480156105465780601f1061051b57610100808354040283529160200191610546565b820191906000526020600020905b81548152906001019060200180831161052957829003601f168201915b5050505050905090565b828054600181600116156101000203166002900490600052602060002090601f016020900481019282601f1061059157805160ff19168380011785556105bf565b828001600101855582156105bf579182015b828111156105be5782518255916020019190600101906105a3565b5b5090506105cc91906105e4565b5090565b602060405190810160405280600081525090565b61060691905b808211156106025760008160009055506001016105ea565b5090565b905600a165627a7a7230582004407a54e644fd11c8e3a731498fed2cbf626bee9c0e0dad9b23d2cc125a2b110029",
  "source": "pragma solidity ^0.4.16;\n\ninterface token {\n    function transfer(address receiver, uint amount);\n    function burnFrom(address _from, uint256 _value);\n    function burn(uint256 _value);\n}\n\ncontract Canvas {\n    string public canvasString;\n    token public tokenInstance;\n\n    event Draw(string canvas);\n\n    function Canvas(\n        address addressOfToken\n    ) {\n        tokenInstance = token(addressOfToken);\n    }\n    function drawString(string data) public returns (bool success) {\n        tokenInstance.burnFrom(msg.sender, 1);\n        canvasString = data;\n        Draw(data);\n        return true;\n      }\n        function getCanvasString() public returns (string canv) {\n         return canvasString;\n         \n     }\n\n}\n",
  "sourcePath": "/Users/DZack/CrypCan/contracts/Canvas.sol",
  "compiler": {
    "name": "solc",
    "version": "0.4.18+commit.9cf6e910.Emscripten.clang"
  },
  "schemaVersion": "1.0.1",
  "updatedAt": "2018-03-20T20:24:05.136Z"
}