{
  "contractName": "Canvas",
  "abi": [
    {
      "constant": true,
      "inputs": [],
      "name": "canvasString",
      "outputs": [
        {
          "name": "",
          "type": "string"
        }
      ],
      "payable": false,
      "stateMutability": "view",
      "type": "function"
    },
    {
      "constant": false,
      "inputs": [
        {
          "name": "data",
          "type": "string"
        }
      ],
      "name": "drawString",
      "outputs": [
        {
          "name": "success",
          "type": "bool"
        }
      ],
      "payable": false,
      "stateMutability": "nonpayable",
      "type": "function"
    },
    {
      "constant": true,
      "inputs": [],
      "name": "tokenInstance",
      "outputs": [
        {
          "name": "",
          "type": "address"
        }
      ],
      "payable": false,
      "stateMutability": "view",
      "type": "function"
    },
    {
      "constant": false,
      "inputs": [],
      "name": "getCanvasString",
      "outputs": [
        {
          "name": "canv",
          "type": "string"
        }
      ],
      "payable": false,
      "stateMutability": "nonpayable",
      "type": "function"
    },
    {
      "inputs": [
        {
          "name": "addressOfToken",
          "type": "address"
        }
      ],
      "payable": false,
      "stateMutability": "nonpayable",
      "type": "constructor"
    },
    {
      "anonymous": false,
      "inputs": [
        {
          "indexed": false,
          "name": "canvas",
          "type": "string"
        }
      ],
      "name": "Draw",
      "type": "event"
    }
  ],
  "bytecode": "0x6060604052341561000f57600080fd5b6040516020806105e18339810160405280805190602001909190505080600160006101000a81548173ffffffffffffffffffffffffffffffffffffffff021916908373ffffffffffffffffffffffffffffffffffffffff160217905550506105658061007c6000396000f300606060405260043610610062576000357c0100000000000000000000000000000000000000000000000000000000900463ffffffff1680634c944ecc146100675780635932b143146100f5578063658030b31461016a5780637323e635146101bf575b600080fd5b341561007257600080fd5b61007a61024d565b6040518080602001828103825283818151815260200191508051906020019080838360005b838110156100ba57808201518184015260208101905061009f565b50505050905090810190601f1680156100e75780820380516001836020036101000a031916815260200191505b509250505060405180910390f35b341561010057600080fd5b610150600480803590602001908201803590602001908080601f016020809104026020016040519081016040528093929190818152602001838380828437820191505050505050919050506102eb565b604051808215151515815260200191505060405180910390f35b341561017557600080fd5b61017d6103b2565b604051808273ffffffffffffffffffffffffffffffffffffffff1673ffffffffffffffffffffffffffffffffffffffff16815260200191505060405180910390f35b34156101ca57600080fd5b6101d26103d8565b6040518080602001828103825283818151815260200191508051906020019080838360005b838110156102125780820151818401526020810190506101f7565b50505050905090810190601f16801561023f5780820380516001836020036101000a031916815260200191505b509250505060405180910390f35b60008054600181600116156101000203166002900480601f0160208091040260200160405190810160405280929190818152602001828054600181600116156101000203166002900480156102e35780601f106102b8576101008083540402835291602001916102e3565b820191906000526020600020905b8154815290600101906020018083116102c657829003601f168201915b505050505081565b6000600160009054906101000a900473ffffffffffffffffffffffffffffffffffffffff1673ffffffffffffffffffffffffffffffffffffffff166342966c6860646040518263ffffffff167c010000000000000000000000000000000000000000000000000000000002815260040180828152602001915050600060405180830381600087803b151561037e57600080fd5b6102c65a03f1151561038f57600080fd5b50505081600090805190602001906103a8929190610480565b5060019050919050565b600160009054906101000a900473ffffffffffffffffffffffffffffffffffffffff1681565b6103e0610500565b60008054600181600116156101000203166002900480601f0160208091040260200160405190810160405280929190818152602001828054600181600116156101000203166002900480156104765780601f1061044b57610100808354040283529160200191610476565b820191906000526020600020905b81548152906001019060200180831161045957829003601f168201915b5050505050905090565b828054600181600116156101000203166002900490600052602060002090601f016020900481019282601f106104c157805160ff19168380011785556104ef565b828001600101855582156104ef579182015b828111156104ee5782518255916020019190600101906104d3565b5b5090506104fc9190610514565b5090565b602060405190810160405280600081525090565b61053691905b8082111561053257600081600090555060010161051a565b5090565b905600a165627a7a723058200eebea0d4e02df52ee235782799a350fe77c95eb1554a1f3a3f62b8c11dce3840029",
  "source": "pragma solidity ^0.4.16;\n\ninterface token {\n    function transfer(address receiver, uint amount);\n    function burnFrom(address _from, uint256 _value);\n    function burn(uint256 _value);\n}\n\ncontract Canvas {\n    string public canvasString;\n    token public tokenInstance;\n\n    event Draw(string canvas);\n\n    function Canvas(\n        address addressOfToken\n    ) {\n        tokenInstance = token(addressOfToken);\n    }\n\n\n    function drawString(string data) public returns (bool success) {\n        tokenInstance.burn(100);\n        canvasString = data;\n        return true;\n      }\n        function getCanvasString() public returns (string canv) {\n         return canvasString;\n         \n     }\n\n}\n",
  "sourcePath": "/Users/DZack/CrypCan/contracts/Canvas.sol",
  "compiler": {
    "name": "solc",
    "version": "0.4.18+commit.9cf6e910.Emscripten.clang"
  },
  "schemaVersion": "1.0.1",
  "updatedAt": "2018-01-30T21:23:51.136Z"
}