{
  "contractName": "Canvas",
  "abi": [
    {
      "constant": true,
      "inputs": [],
      "name": "addressOfToken",
      "outputs": [
        {
          "name": "",
          "type": "address"
        }
      ],
      "payable": false,
      "stateMutability": "view",
      "type": "function"
    },
    {
      "constant": true,
      "inputs": [],
      "name": "canvasString",
      "outputs": [
        {
          "name": "",
          "type": "string"
        }
      ],
      "payable": false,
      "stateMutability": "view",
      "type": "function"
    },
    {
      "constant": false,
      "inputs": [
        {
          "name": "data",
          "type": "string"
        }
      ],
      "name": "drawString",
      "outputs": [
        {
          "name": "success",
          "type": "bool"
        }
      ],
      "payable": false,
      "stateMutability": "nonpayable",
      "type": "function"
    },
    {
      "constant": true,
      "inputs": [],
      "name": "tokenInstance",
      "outputs": [
        {
          "name": "",
          "type": "address"
        }
      ],
      "payable": false,
      "stateMutability": "view",
      "type": "function"
    },
    {
      "constant": false,
      "inputs": [],
      "name": "getCanvasString",
      "outputs": [
        {
          "name": "canv",
          "type": "string"
        }
      ],
      "payable": false,
      "stateMutability": "nonpayable",
      "type": "function"
    },
    {
      "inputs": [
        {
          "name": "addressOfToken",
          "type": "address"
        }
      ],
      "payable": false,
      "stateMutability": "nonpayable",
      "type": "constructor"
    },
    {
      "anonymous": false,
      "inputs": [
        {
          "indexed": false,
          "name": "canvas",
          "type": "string"
        }
      ],
      "name": "Draw",
      "type": "event"
    }
  ],
  "bytecode": "0x6060604052341561000f57600080fd5b60405160208061069e8339810160405280805190602001909190505080600160006101000a81548173ffffffffffffffffffffffffffffffffffffffff021916908373ffffffffffffffffffffffffffffffffffffffff1602179055508090505061061f8061007f6000396000f30060606040526004361061006d576000357c0100000000000000000000000000000000000000000000000000000000900463ffffffff1680634a0f97e8146100725780634c944ecc146100c75780635932b14314610155578063658030b3146101ca5780637323e6351461021f575b600080fd5b341561007d57600080fd5b6100856102ad565b604051808273ffffffffffffffffffffffffffffffffffffffff1673ffffffffffffffffffffffffffffffffffffffff16815260200191505060405180910390f35b34156100d257600080fd5b6100da6102d3565b6040518080602001828103825283818151815260200191508051906020019080838360005b8381101561011a5780820151818401526020810190506100ff565b50505050905090810190601f1680156101475780820380516001836020036101000a031916815260200191505b509250505060405180910390f35b341561016057600080fd5b6101b0600480803590602001908201803590602001908080601f01602080910402602001604051908101604052809392919081815260200183838082843782019150505050505091905050610371565b604051808215151515815260200191505060405180910390f35b34156101d557600080fd5b6101dd61046c565b604051808273ffffffffffffffffffffffffffffffffffffffff1673ffffffffffffffffffffffffffffffffffffffff16815260200191505060405180910390f35b341561022a57600080fd5b610232610492565b6040518080602001828103825283818151815260200191508051906020019080838360005b83811015610272578082015181840152602081019050610257565b50505050905090810190601f16801561029f5780820380516001836020036101000a031916815260200191505b509250505060405180910390f35b600260009054906101000a900473ffffffffffffffffffffffffffffffffffffffff1681565b60008054600181600116156101000203166002900480601f0160208091040260200160405190810160405280929190818152602001828054600181600116156101000203166002900480156103695780601f1061033e57610100808354040283529160200191610369565b820191906000526020600020905b81548152906001019060200180831161034c57829003601f168201915b505050505081565b6000600160009054906101000a900473ffffffffffffffffffffffffffffffffffffffff1673ffffffffffffffffffffffffffffffffffffffff166379cc67903360016040518363ffffffff167c0100000000000000000000000000000000000000000000000000000000028152600401808373ffffffffffffffffffffffffffffffffffffffff1673ffffffffffffffffffffffffffffffffffffffff16815260200182815260200192505050600060405180830381600087803b151561043857600080fd5b6102c65a03f1151561044957600080fd5b505050816000908051906020019061046292919061053a565b5060019050919050565b600160009054906101000a900473ffffffffffffffffffffffffffffffffffffffff1681565b61049a6105ba565b60008054600181600116156101000203166002900480601f0160208091040260200160405190810160405280929190818152602001828054600181600116156101000203166002900480156105305780601f1061050557610100808354040283529160200191610530565b820191906000526020600020905b81548152906001019060200180831161051357829003601f168201915b5050505050905090565b828054600181600116156101000203166002900490600052602060002090601f016020900481019282601f1061057b57805160ff19168380011785556105a9565b828001600101855582156105a9579182015b828111156105a857825182559160200191906001019061058d565b5b5090506105b691906105ce565b5090565b602060405190810160405280600081525090565b6105f091905b808211156105ec5760008160009055506001016105d4565b5090565b905600a165627a7a723058204534cd0883847d019be5bdbcbf5d3a92604701f502723b87dcfc789264a707da0029",
  "source": "pragma solidity ^0.4.16;\n\ninterface token {\n    function transfer(address receiver, uint amount);\n    function burnFrom(address _from, uint256 _value);\n    function burn(uint256 _value);\n}\n\ncontract Canvas {\n    string public canvasString;\n    token public tokenInstance;\n      address public addressOfToken;\n\n    event Draw(string canvas);\n\n    function Canvas(\n        address addressOfToken\n    ) {\n        tokenInstance = token(addressOfToken);\n        addressOfToken = addressOfToken;\n    }\n\n\n    function drawString(string data) public returns (bool success) {\n        tokenInstance.burnFrom(msg.sender, 1);\n        canvasString = data;\n        return true;\n      }\n        function getCanvasString() public returns (string canv) {\n         return canvasString;\n         \n     }\n\n}\n",
  "sourcePath": "/Users/DZack/CrypCan/contracts/Canvas.sol",
  "compiler": {
    "name": "solc",
    "version": "0.4.18+commit.9cf6e910.Emscripten.clang"
  },
  "schemaVersion": "1.0.1",
  "updatedAt": "2018-02-22T19:47:28.142Z"
}