{
  "contractName": "Canvas",
  "abi": [
    {
      "constant": false,
      "inputs": [
        {
          "name": "data",
          "type": "string"
        }
      ],
      "name": "drawString",
      "outputs": [
        {
          "name": "success",
          "type": "bool"
        }
      ],
      "payable": false,
      "stateMutability": "nonpayable",
      "type": "function"
    },
    {
      "constant": true,
      "inputs": [],
      "name": "tokenInstance",
      "outputs": [
        {
          "name": "",
          "type": "address"
        }
      ],
      "payable": false,
      "stateMutability": "view",
      "type": "function"
    },
    {
      "constant": false,
      "inputs": [],
      "name": "getCanvasString",
      "outputs": [
        {
          "name": "canv",
          "type": "string"
        }
      ],
      "payable": false,
      "stateMutability": "nonpayable",
      "type": "function"
    },
    {
      "inputs": [
        {
          "name": "addressOfToken",
          "type": "address"
        }
      ],
      "payable": false,
      "stateMutability": "nonpayable",
      "type": "constructor"
    },
    {
      "anonymous": false,
      "inputs": [
        {
          "indexed": false,
          "name": "canvas",
          "type": "string"
        }
      ],
      "name": "Draw",
      "type": "event"
    }
  ],
  "bytecode": "0x6060604052341561000f57600080fd5b6040516020806104a18339810160405280805190602001909190505080600160006101000a81548173ffffffffffffffffffffffffffffffffffffffff021916908373ffffffffffffffffffffffffffffffffffffffff160217905550506104258061007c6000396000f300606060405260043610610057576000357c0100000000000000000000000000000000000000000000000000000000900463ffffffff1680635932b1431461005c578063658030b3146100d15780637323e63514610126575b600080fd5b341561006757600080fd5b6100b7600480803590602001908201803590602001908080601f016020809104026020016040519081016040528093929190818152602001838380828437820191505050505050919050506101b4565b604051808215151515815260200191505060405180910390f35b34156100dc57600080fd5b6100e4610272565b604051808273ffffffffffffffffffffffffffffffffffffffff1673ffffffffffffffffffffffffffffffffffffffff16815260200191505060405180910390f35b341561013157600080fd5b610139610298565b6040518080602001828103825283818151815260200191508051906020019080838360005b8381101561017957808201518184015260208101905061015e565b50505050905090810190601f1680156101a65780820380516001836020036101000a031916815260200191505b509250505060405180910390f35b600081600090805190602001906101cc929190610340565b507f4de411966911eab10c37d2d2df9d6c4f4f4c8af1a7a80477ffeb448e06466eb3826040518080602001828103825283818151815260200191508051906020019080838360005b8381101561022f578082015181840152602081019050610214565b50505050905090810190601f16801561025c5780820380516001836020036101000a031916815260200191505b509250505060405180910390a160019050919050565b600160009054906101000a900473ffffffffffffffffffffffffffffffffffffffff1681565b6102a06103c0565b60008054600181600116156101000203166002900480601f0160208091040260200160405190810160405280929190818152602001828054600181600116156101000203166002900480156103365780601f1061030b57610100808354040283529160200191610336565b820191906000526020600020905b81548152906001019060200180831161031957829003601f168201915b5050505050905090565b828054600181600116156101000203166002900490600052602060002090601f016020900481019282601f1061038157805160ff19168380011785556103af565b828001600101855582156103af579182015b828111156103ae578251825591602001919060010190610393565b5b5090506103bc91906103d4565b5090565b602060405190810160405280600081525090565b6103f691905b808211156103f25760008160009055506001016103da565b5090565b905600a165627a7a723058208bf4fa240be976616060870b366fc5d3745d41fd13aa7c12ecf7a5452aebc66d0029",
  "source": "pragma solidity ^0.4.16;\n\ninterface token {\n    function transfer(address receiver, uint amount);\n}\n\ncontract Canvas {\n    string canvasString;\n    token public tokenInstance;\n\n    event Draw(string canvas);\n\n    function Canvas(\n        address addressOfToken\n    ) {\n        tokenInstance = token(addressOfToken);\n    }\n\n\n    function drawString(string data) public returns (bool success) {\n         canvasString = data;\n        Draw(data);\n         return true;\n      }\n        function getCanvasString() public returns (string canv) {\n         return canvasString;\n         \n     }\n\n}\n",
  "sourcePath": "/Users/DZack/CrypCan/contracts/Canvas.sol",
  "compiler": {
    "name": "solc",
    "version": "0.4.18+commit.9cf6e910.Emscripten.clang"
  },
  "schemaVersion": "1.0.1",
  "updatedAt": "2018-01-26T22:30:44.071Z"
}